{
    "contractName": "ChainwhizCore",
    "abi": [
        {
            "inputs": [
                {
                    "internalType": "address",
                    "name": "_ChainwhizAdmin",
                    "type": "address"
                }
            ],
            "stateMutability": "nonpayable",
            "type": "constructor"
        },
        {
            "anonymous": false,
            "inputs": [],
            "name": "ActivateContract",
            "type": "event"
        },
        {
            "anonymous": false,
            "inputs": [],
            "name": "DeactivateContract",
            "type": "event"
        },
        {
            "anonymous": false,
            "inputs": [
                {
                    "indexed": false,
                    "internalType": "address",
                    "name": "newAddress",
                    "type": "address"
                }
            ],
            "name": "ETHGateWayAddressChanged",
            "type": "event"
        },
        {
            "anonymous": false,
            "inputs": [
                {
                    "indexed": false,
                    "internalType": "address",
                    "name": "publisher",
                    "type": "address"
                },
                {
                    "indexed": false,
                    "internalType": "address",
                    "name": "solver",
                    "type": "address"
                },
                {
                    "indexed": false,
                    "internalType": "string",
                    "name": "issueLink",
                    "type": "string"
                },
                {
                    "indexed": false,
                    "internalType": "string",
                    "name": "solutionLink",
                    "type": "string"
                }
            ],
            "name": "EscorwInitiated",
            "type": "event"
        },
        {
            "anonymous": false,
            "inputs": [
                {
                    "indexed": false,
                    "internalType": "address",
                    "name": "publisher",
                    "type": "address"
                },
                {
                    "indexed": false,
                    "internalType": "address",
                    "name": "solver",
                    "type": "address"
                },
                {
                    "indexed": false,
                    "internalType": "string",
                    "name": "issueLink",
                    "type": "string"
                },
                {
                    "indexed": false,
                    "internalType": "string",
                    "name": "solutionLink",
                    "type": "string"
                }
            ],
            "name": "EscrowTransferOwnership",
            "type": "event"
        },
        {
            "anonymous": false,
            "inputs": [
                {
                    "indexed": false,
                    "internalType": "address",
                    "name": "publisher",
                    "type": "address"
                },
                {
                    "indexed": false,
                    "internalType": "string",
                    "name": "githubid",
                    "type": "string"
                },
                {
                    "indexed": false,
                    "internalType": "string",
                    "name": "githubUrl",
                    "type": "string"
                },
                {
                    "indexed": false,
                    "internalType": "uint256",
                    "name": "solverRewardAmount",
                    "type": "uint256"
                },
                {
                    "indexed": false,
                    "internalType": "uint256",
                    "name": "communityVoteReward",
                    "type": "uint256"
                }
            ],
            "name": "IssuePosted",
            "type": "event"
        },
        {
            "anonymous": false,
            "inputs": [
                {
                    "indexed": false,
                    "internalType": "address",
                    "name": "newAddress",
                    "type": "address"
                }
            ],
            "name": "LendingPoolProviderAddressChanged",
            "type": "event"
        },
        {
            "anonymous": false,
            "inputs": [
                {
                    "indexed": false,
                    "internalType": "string",
                    "name": "solverGithubId",
                    "type": "string"
                },
                {
                    "indexed": false,
                    "internalType": "string",
                    "name": "solutionLink",
                    "type": "string"
                },
                {
                    "indexed": false,
                    "internalType": "string",
                    "name": "publisherGithubId",
                    "type": "string"
                },
                {
                    "indexed": false,
                    "internalType": "string",
                    "name": "issueGithubUrl",
                    "type": "string"
                }
            ],
            "name": "SolutionSubmitted",
            "type": "event"
        },
        {
            "anonymous": false,
            "inputs": [
                {
                    "indexed": false,
                    "internalType": "address",
                    "name": "publisher",
                    "type": "address"
                },
                {
                    "indexed": false,
                    "internalType": "string",
                    "name": "issueLink",
                    "type": "string"
                }
            ],
            "name": "UnstakeAmountSet",
            "type": "event"
        },
        {
            "anonymous": false,
            "inputs": [
                {
                    "indexed": false,
                    "internalType": "string",
                    "name": "solutionLink",
                    "type": "string"
                },
                {
                    "indexed": false,
                    "internalType": "address",
                    "name": "voter",
                    "type": "address"
                },
                {
                    "indexed": false,
                    "internalType": "uint256",
                    "name": "amount",
                    "type": "uint256"
                }
            ],
            "name": "VoteStaked",
            "type": "event"
        },
        {
            "anonymous": false,
            "inputs": [
                {
                    "indexed": false,
                    "internalType": "string",
                    "name": "solutionLink",
                    "type": "string"
                }
            ],
            "name": "VoterUnstaked",
            "type": "event"
        },
        {
            "stateMutability": "nonpayable",
            "type": "fallback"
        },
        {
            "inputs": [],
            "name": "ChainwhizAdmin",
            "outputs": [
                {
                    "internalType": "address",
                    "name": "",
                    "type": "address"
                }
            ],
            "stateMutability": "view",
            "type": "function"
        },
        {
            "inputs": [],
            "name": "ChainwhizTreasary",
            "outputs": [
                {
                    "internalType": "uint256",
                    "name": "",
                    "type": "uint256"
                }
            ],
            "stateMutability": "view",
            "type": "function"
        },
        {
            "inputs": [],
            "name": "MAX_COMMUNITY_REWARD_AMOUNT",
            "outputs": [
                {
                    "internalType": "uint256",
                    "name": "",
                    "type": "uint256"
                }
            ],
            "stateMutability": "view",
            "type": "function"
        },
        {
            "inputs": [],
            "name": "MAX_REWARD_AMOUNT",
            "outputs": [
                {
                    "internalType": "uint256",
                    "name": "",
                    "type": "uint256"
                }
            ],
            "stateMutability": "view",
            "type": "function"
        },
        {
            "inputs": [],
            "name": "MAX_STAKE_AMOUNT",
            "outputs": [
                {
                    "internalType": "uint256",
                    "name": "",
                    "type": "uint256"
                }
            ],
            "stateMutability": "view",
            "type": "function"
        },
        {
            "inputs": [],
            "name": "MIN_COMMUNITY_REWARD_AMOUNT",
            "outputs": [
                {
                    "internalType": "uint256",
                    "name": "",
                    "type": "uint256"
                }
            ],
            "stateMutability": "view",
            "type": "function"
        },
        {
            "inputs": [],
            "name": "MIN_REWARD_AMOUNT",
            "outputs": [
                {
                    "internalType": "uint256",
                    "name": "",
                    "type": "uint256"
                }
            ],
            "stateMutability": "view",
            "type": "function"
        },
        {
            "inputs": [],
            "name": "MIN_STAKING_AMOUNT",
            "outputs": [
                {
                    "internalType": "uint256",
                    "name": "",
                    "type": "uint256"
                }
            ],
            "stateMutability": "view",
            "type": "function"
        },
        {
            "inputs": [],
            "name": "aMaticAddress",
            "outputs": [
                {
                    "internalType": "address",
                    "name": "",
                    "type": "address"
                }
            ],
            "stateMutability": "view",
            "type": "function"
        },
        {
            "inputs": [],
            "name": "aaveIncentiveAddress",
            "outputs": [
                {
                    "internalType": "address",
                    "name": "",
                    "type": "address"
                }
            ],
            "stateMutability": "view",
            "type": "function"
        },
        {
            "inputs": [],
            "name": "activateContract",
            "outputs": [],
            "stateMutability": "nonpayable",
            "type": "function"
        },
        {
            "inputs": [
                {
                    "internalType": "address",
                    "name": "_claimer",
                    "type": "address"
                }
            ],
            "name": "claimInterest",
            "outputs": [],
            "stateMutability": "nonpayable",
            "type": "function"
        },
        {
            "inputs": [],
            "name": "deactivateContract",
            "outputs": [],
            "stateMutability": "nonpayable",
            "type": "function"
        },
        {
            "inputs": [],
            "name": "ethGateWayAddress",
            "outputs": [
                {
                    "internalType": "address",
                    "name": "",
                    "type": "address"
                }
            ],
            "stateMutability": "view",
            "type": "function"
        },
        {
            "inputs": [
                {
                    "internalType": "string",
                    "name": "_issueLink",
                    "type": "string"
                },
                {
                    "internalType": "string",
                    "name": "_solverGithubId",
                    "type": "string"
                }
            ],
            "name": "initiateEscrow",
            "outputs": [],
            "stateMutability": "nonpayable",
            "type": "function"
        },
        {
            "inputs": [],
            "name": "isContractActive",
            "outputs": [
                {
                    "internalType": "bool",
                    "name": "",
                    "type": "bool"
                }
            ],
            "stateMutability": "view",
            "type": "function"
        },
        {
            "inputs": [
                {
                    "internalType": "address",
                    "name": "",
                    "type": "address"
                },
                {
                    "internalType": "string",
                    "name": "",
                    "type": "string"
                }
            ],
            "name": "issueDetail",
            "outputs": [
                {
                    "internalType": "address",
                    "name": "publisher",
                    "type": "address"
                },
                {
                    "internalType": "uint256",
                    "name": "solverRewardAmount",
                    "type": "uint256"
                },
                {
                    "internalType": "uint256",
                    "name": "communityVoterRewardAmount",
                    "type": "uint256"
                },
                {
                    "internalType": "uint256",
                    "name": "startSolveTime",
                    "type": "uint256"
                },
                {
                    "internalType": "uint256",
                    "name": "endSolveTime",
                    "type": "uint256"
                },
                {
                    "internalType": "uint256",
                    "name": "startVoteTime",
                    "type": "uint256"
                },
                {
                    "internalType": "uint256",
                    "name": "endVoteTime",
                    "type": "uint256"
                },
                {
                    "internalType": "bool",
                    "name": "isCommunityVote",
                    "type": "bool"
                },
                {
                    "internalType": "enum ChainwhizCore.QuestionStatus",
                    "name": "questionStatus",
                    "type": "uint8"
                },
                {
                    "internalType": "bool",
                    "name": "isUnstakeSet",
                    "type": "bool"
                },
                {
                    "components": [
                        {
                            "internalType": "address",
                            "name": "solver",
                            "type": "address"
                        },
                        {
                            "internalType": "string",
                            "name": "solutionLink",
                            "type": "string"
                        },
                        {
                            "internalType": "uint256",
                            "name": "timeOfPosting",
                            "type": "uint256"
                        },
                        {
                            "internalType": "address[]",
                            "name": "voterAddress",
                            "type": "address[]"
                        },
                        {
                            "internalType": "uint256",
                            "name": "totalStakedAmount",
                            "type": "uint256"
                        },
                        {
                            "internalType": "enum ChainwhizCore.EscrowStatus",
                            "name": "escrowStatus",
                            "type": "uint8"
                        }
                    ],
                    "internalType": "struct ChainwhizCore.Solution",
                    "name": "choosenSolution",
                    "type": "tuple"
                }
            ],
            "stateMutability": "view",
            "type": "function"
        },
        {
            "inputs": [],
            "name": "lendingPoolProviderAddress",
            "outputs": [
                {
                    "internalType": "address",
                    "name": "",
                    "type": "address"
                }
            ],
            "stateMutability": "view",
            "type": "function"
        },
        {
            "inputs": [
                {
                    "internalType": "string",
                    "name": "_githubId",
                    "type": "string"
                },
                {
                    "internalType": "string",
                    "name": "_githubUrl",
                    "type": "string"
                },
                {
                    "internalType": "uint256",
                    "name": "_solverRewardAmount",
                    "type": "uint256"
                },
                {
                    "internalType": "uint256",
                    "name": "_communityVoterRewardAmount",
                    "type": "uint256"
                },
                {
                    "internalType": "uint256",
                    "name": "_endSolverTime",
                    "type": "uint256"
                },
                {
                    "internalType": "uint256",
                    "name": "_startVoteTime",
                    "type": "uint256"
                },
                {
                    "internalType": "uint256",
                    "name": "_endVoteTime",
                    "type": "uint256"
                }
            ],
            "name": "postIssue",
            "outputs": [
                {
                    "internalType": "bool",
                    "name": "",
                    "type": "bool"
                }
            ],
            "stateMutability": "payable",
            "type": "function"
        },
        {
            "inputs": [
                {
                    "internalType": "string",
                    "name": "_githubId",
                    "type": "string"
                },
                {
                    "internalType": "string",
                    "name": "_solutionLink",
                    "type": "string"
                },
                {
                    "internalType": "string",
                    "name": "_issueGithubUrl",
                    "type": "string"
                },
                {
                    "internalType": "address",
                    "name": "_publisherAddress",
                    "type": "address"
                },
                {
                    "internalType": "string",
                    "name": "_publisherGithubId",
                    "type": "string"
                }
            ],
            "name": "postSolution",
            "outputs": [
                {
                    "internalType": "bool",
                    "name": "",
                    "type": "bool"
                }
            ],
            "stateMutability": "nonpayable",
            "type": "function"
        },
        {
            "inputs": [
                {
                    "internalType": "string",
                    "name": "",
                    "type": "string"
                }
            ],
            "name": "publisher",
            "outputs": [
                {
                    "internalType": "address",
                    "name": "",
                    "type": "address"
                }
            ],
            "stateMutability": "view",
            "type": "function"
        },
        {
            "inputs": [
                {
                    "internalType": "uint256",
                    "name": "",
                    "type": "uint256"
                }
            ],
            "name": "rewardAddress",
            "outputs": [
                {
                    "internalType": "address",
                    "name": "",
                    "type": "address"
                }
            ],
            "stateMutability": "view",
            "type": "function"
        },
        {
            "inputs": [
                {
                    "internalType": "address",
                    "name": "_aaveIncentiveAddress",
                    "type": "address"
                }
            ],
            "name": "setAaveIncentiveAddress",
            "outputs": [],
            "stateMutability": "nonpayable",
            "type": "function"
        },
        {
            "inputs": [
                {
                    "internalType": "uint256",
                    "name": "_approvalAmount",
                    "type": "uint256"
                }
            ],
            "name": "setApproval",
            "outputs": [],
            "stateMutability": "nonpayable",
            "type": "function"
        },
        {
            "inputs": [
                {
                    "internalType": "address",
                    "name": "_newChainwhizAdmin",
                    "type": "address"
                }
            ],
            "name": "setChainwhizAdmin",
            "outputs": [],
            "stateMutability": "nonpayable",
            "type": "function"
        },
        {
            "inputs": [
                {
                    "internalType": "address",
                    "name": "_ethGateWayAddress",
                    "type": "address"
                }
            ],
            "name": "setETHGatewayAddress",
            "outputs": [],
            "stateMutability": "nonpayable",
            "type": "function"
        },
        {
            "inputs": [
                {
                    "internalType": "address",
                    "name": "_lendingPoolProviderAddress",
                    "type": "address"
                }
            ],
            "name": "setLendingPoolProviderAddress",
            "outputs": [],
            "stateMutability": "nonpayable",
            "type": "function"
        },
        {
            "inputs": [
                {
                    "internalType": "uint256",
                    "name": "_newRewardAmount",
                    "type": "uint256"
                }
            ],
            "name": "setMinimumRewardAmount",
            "outputs": [],
            "stateMutability": "nonpayable",
            "type": "function"
        },
        {
            "inputs": [
                {
                    "internalType": "uint256",
                    "name": "_newStakeAmount",
                    "type": "uint256"
                }
            ],
            "name": "setMinimumStakeAmount",
            "outputs": [],
            "stateMutability": "nonpayable",
            "type": "function"
        },
        {
            "inputs": [
                {
                    "internalType": "address",
                    "name": "_rewardAddress",
                    "type": "address"
                }
            ],
            "name": "setReawrdArrayAddress",
            "outputs": [],
            "stateMutability": "nonpayable",
            "type": "function"
        },
        {
            "inputs": [
                {
                    "internalType": "string",
                    "name": "_issueLink",
                    "type": "string"
                },
                {
                    "internalType": "address",
                    "name": "_publisher",
                    "type": "address"
                },
                {
                    "internalType": "string[]",
                    "name": "_solutionLinks",
                    "type": "string[]"
                },
                {
                    "internalType": "address[]",
                    "name": "_voterAddress",
                    "type": "address[]"
                },
                {
                    "internalType": "uint256[]",
                    "name": "_amount",
                    "type": "uint256[]"
                },
                {
                    "internalType": "uint256",
                    "name": "start",
                    "type": "uint256"
                },
                {
                    "internalType": "uint256",
                    "name": "end",
                    "type": "uint256"
                }
            ],
            "name": "setUnstakeAmount",
            "outputs": [],
            "stateMutability": "nonpayable",
            "type": "function"
        },
        {
            "inputs": [
                {
                    "internalType": "address",
                    "name": "_aMaticAddress",
                    "type": "address"
                }
            ],
            "name": "setaMaticAddress",
            "outputs": [],
            "stateMutability": "nonpayable",
            "type": "function"
        },
        {
            "inputs": [
                {
                    "internalType": "string",
                    "name": "",
                    "type": "string"
                },
                {
                    "internalType": "string",
                    "name": "",
                    "type": "string"
                }
            ],
            "name": "solutionDetails",
            "outputs": [
                {
                    "internalType": "address",
                    "name": "solver",
                    "type": "address"
                },
                {
                    "internalType": "string",
                    "name": "solutionLink",
                    "type": "string"
                },
                {
                    "internalType": "uint256",
                    "name": "timeOfPosting",
                    "type": "uint256"
                },
                {
                    "internalType": "uint256",
                    "name": "totalStakedAmount",
                    "type": "uint256"
                },
                {
                    "internalType": "enum ChainwhizCore.EscrowStatus",
                    "name": "escrowStatus",
                    "type": "uint8"
                }
            ],
            "stateMutability": "view",
            "type": "function"
        },
        {
            "inputs": [
                {
                    "internalType": "string",
                    "name": "",
                    "type": "string"
                }
            ],
            "name": "solver",
            "outputs": [
                {
                    "internalType": "address",
                    "name": "",
                    "type": "address"
                }
            ],
            "stateMutability": "view",
            "type": "function"
        },
        {
            "inputs": [
                {
                    "internalType": "string",
                    "name": "_issueGithubUrl",
                    "type": "string"
                },
                {
                    "internalType": "address",
                    "name": "_publisherAddress",
                    "type": "address"
                },
                {
                    "internalType": "string",
                    "name": "_publisherGithubId",
                    "type": "string"
                },
                {
                    "internalType": "string",
                    "name": "_solverGithubId",
                    "type": "string"
                },
                {
                    "internalType": "address",
                    "name": "_solver",
                    "type": "address"
                },
                {
                    "internalType": "string",
                    "name": "_solutionLink",
                    "type": "string"
                },
                {
                    "internalType": "uint256",
                    "name": "_stakeAmount",
                    "type": "uint256"
                },
                {
                    "internalType": "string",
                    "name": "_githubId",
                    "type": "string"
                }
            ],
            "name": "stakeVote",
            "outputs": [],
            "stateMutability": "nonpayable",
            "type": "function"
        },
        {
            "inputs": [
                {
                    "internalType": "string",
                    "name": "_issueGithubUrl",
                    "type": "string"
                },
                {
                    "internalType": "string",
                    "name": "_publisherGithubId",
                    "type": "string"
                },
                {
                    "internalType": "address",
                    "name": "_publisherAddress",
                    "type": "address"
                }
            ],
            "name": "startVotingStage",
            "outputs": [],
            "stateMutability": "nonpayable",
            "type": "function"
        },
        {
            "inputs": [
                {
                    "internalType": "address",
                    "name": "_publisher",
                    "type": "address"
                },
                {
                    "internalType": "string",
                    "name": "_issueLink",
                    "type": "string"
                }
            ],
            "name": "transferRewardAmount",
            "outputs": [],
            "stateMutability": "nonpayable",
            "type": "function"
        },
        {
            "inputs": [
                {
                    "internalType": "string",
                    "name": "_solutionLink",
                    "type": "string"
                }
            ],
            "name": "unstake",
            "outputs": [],
            "stateMutability": "nonpayable",
            "type": "function"
        },
        {
            "inputs": [
                {
                    "internalType": "string",
                    "name": "",
                    "type": "string"
                },
                {
                    "internalType": "address",
                    "name": "",
                    "type": "address"
                }
            ],
            "name": "voteDetails",
            "outputs": [
                {
                    "internalType": "address",
                    "name": "voter",
                    "type": "address"
                },
                {
                    "internalType": "uint256",
                    "name": "votingPower",
                    "type": "uint256"
                },
                {
                    "internalType": "uint256",
                    "name": "amountStaked",
                    "type": "uint256"
                },
                {
                    "internalType": "uint256",
                    "name": "returnAmount",
                    "type": "uint256"
                },
                {
                    "internalType": "bool",
                    "name": "isUnstake",
                    "type": "bool"
                }
            ],
            "stateMutability": "view",
            "type": "function"
        },
        {
            "inputs": [
                {
                    "internalType": "string",
                    "name": "",
                    "type": "string"
                }
            ],
            "name": "voter",
            "outputs": [
                {
                    "internalType": "address",
                    "name": "",
                    "type": "address"
                }
            ],
            "stateMutability": "view",
            "type": "function"
        },
        {
            "inputs": [
                {
                    "internalType": "uint256",
                    "name": "_amount",
                    "type": "uint256"
                },
                {
                    "internalType": "address",
                    "name": "_to",
                    "type": "address"
                }
            ],
            "name": "withdrawFromTrasery",
            "outputs": [],
            "stateMutability": "nonpayable",
            "type": "function"
        },
        {
            "stateMutability": "payable",
            "type": "receive"
        }
    ],
    "bytecode": "6080604052674563918244f4000060028190556815af1d78b58c40000060035560045568022b1c8c1227a000006005819055678ac7230489e800006006556007556008805460ff191660011790553480156200005a57600080fd5b5060405162004b4b38038062004b4b8339810160408190526200007d91620000a8565b6001600081905580546001600160a01b0319166001600160a01b0392909216919091179055620000da565b600060208284031215620000bb57600080fd5b81516001600160a01b0381168114620000d357600080fd5b9392505050565b614a6180620000ea6000396000f3fe60806040526004361061024a5760003560e01c80638fda356d11610139578063bceefff4116100b6578063ef0763a81161007a578063ef0763a8146106e6578063f5724fe114610706578063f6ef85cd146107ac578063fbbd12a6146107c2578063fbdb73aa14610803578063ff9bebc61461082357610251565b8063bceefff414610646578063bfcc2a5f14610666578063c473606214610686578063cc89b1d6146106a6578063d8a0ac97146106c657610251565b8063a2ca7194116100fd578063a2ca7194146105c8578063aab28d29146105e8578063ac601474146105fb578063aefe116914610611578063bca353be1461063157610251565b80638fda356d1461053d578063933bdf411461055257806397541c32146105725780639ae9923b14610592578063a04f6b4b146105b257610251565b8063457956c9116101c75780637206bc201161018b5780637206bc201461048c57806385dd2920146104ac5780638671bd6c146104c257806388d742c2146105035780638f5949f91461052357610251565b8063457956c9146103e5578063504e7604146104055780636247be521461041b57806365596e411461043b5780636d1b6d461461046c57610251565b80632df715ce1161020e5780632df715ce146103245780632f92f1f2146103445780633515f96914610368578063406fac881461039f57806344fc10c6146103cf57610251565b80630d29fcd4146102605780630dbb78a4146102825780631a38517d146102a25780632900b5ce146102df5780632b54ecd11461030457610251565b3661025157005b34801561025d57600080fd5b50005b34801561026c57600080fd5b5061028061027b366004613c1a565b610864565b005b34801561028e57600080fd5b5061028061029d366004613c58565b6108c3565b3480156102ae57600080fd5b506001546102c2906001600160a01b031681565b6040516001600160a01b0390911681526020015b60405180910390f35b3480156102eb57600080fd5b506008546102c29061010090046001600160a01b031681565b34801561031057600080fd5b5061028061031f366004613d3d565b6109c9565b34801561033057600080fd5b5061028061033f366004613da0565b610e26565b34801561035057600080fd5b5061035a60055481565b6040519081526020016102d6565b34801561037457600080fd5b50610388610383366004613e9c565b611839565b6040516102d69b9a99989796959493929190614006565b3480156103ab57600080fd5b506103bf6103ba366004614087565b611a11565b60405190151581526020016102d6565b3480156103db57600080fd5b5061035a600b5481565b3480156103f157600080fd5b50610280610400366004613c1a565b611e9b565b34801561041157600080fd5b5061035a60065481565b34801561042757600080fd5b50610280610436366004614148565b611ef1565b34801561044757600080fd5b5061045b610456366004613d3d565b611f64565b6040516102d695949392919061416c565b34801561047857600080fd5b506009546102c2906001600160a01b031681565b34801561049857600080fd5b506102806104a7366004614148565b612052565b3480156104b857600080fd5b5061035a60075481565b3480156104ce57600080fd5b506102c26104dd3660046141b5565b80516020818301810180516010825292820191909301209152546001600160a01b031681565b34801561050f57600080fd5b5061028061051e366004614148565b6120c5565b34801561052f57600080fd5b506008546103bf9060ff1681565b34801561054957600080fd5b50610280612239565b34801561055e57600080fd5b5061028061056d366004614362565b6122dd565b34801561057e57600080fd5b5061028061058d366004613c1a565b6126ad565b34801561059e57600080fd5b506102806105ad366004614148565b61272f565b3480156105be57600080fd5b5061035a60035481565b3480156105d457600080fd5b50600c546102c2906001600160a01b031681565b6103bf6105f6366004614432565b6127dd565b34801561060757600080fd5b5061035a60045481565b34801561061d57600080fd5b50600a546102c2906001600160a01b031681565b34801561063d57600080fd5b50610280612a73565b34801561065257600080fd5b50610280610661366004614148565b612af9565b34801561067257600080fd5b506102c2610681366004613c1a565b612b98565b34801561069257600080fd5b506102806106a1366004613e9c565b612bc2565b3480156106b257600080fd5b506102806106c1366004614148565b61312f565b3480156106d257600080fd5b506102806106e13660046141b5565b6131a2565b3480156106f257600080fd5b50610280610701366004614148565b613281565b34801561071257600080fd5b506107786107213660046144c1565b815160208184018101805160118252928201948201949094209190935290915260009081526040902080546001820154600283015460038401546004909401546001600160a01b0390931693919290919060ff1685565b604080516001600160a01b03909616865260208601949094529284019190915260608301521515608082015260a0016102d6565b3480156107b857600080fd5b5061035a60025481565b3480156107ce57600080fd5b506102c26107dd3660046141b5565b80516020818301810180516012825292820191909301209152546001600160a01b031681565b34801561080f57600080fd5b5061028061081e366004614507565b613324565b34801561082f57600080fd5b506102c261083e3660046141b5565b8051602081830181018051600e825292820191909301209152546001600160a01b031681565b6001546001600160a01b031633146108975760405162461bcd60e51b815260040161088e9061457e565b60405180910390fd5b60085460ff1615156001146108be5760405162461bcd60e51b815260040161088e906145a2565b600455565b60085460ff1615156001146108ea5760405162461bcd60e51b815260040161088e906145a2565b6001546001600160a01b031633146109145760405162461bcd60e51b815260040161088e9061457e565b600260005414156109375760405162461bcd60e51b815260040161088e906145cc565b6002600055600b548211156109a35760405162461bcd60e51b815260206004820152602c60248201527f4572726f7220696e20776974686472617746726f6d547261736572793a20496e60448201526b1d985b1a5908185b5bdd5b9d60a21b606482015260840161088e565b6001600160a01b0381166109b657600080fd5b6109c08282613490565b50506001600055565b60085460ff1615156001146109f05760405162461bcd60e51b815260040161088e906145a2565b336000908152600f60205260408082209051610a0d908590614603565b9081526040519081900360200190206007810154909150610a309060ff166135d5565b6000601384604051610a429190614603565b908152602001604051809103902083604051610a5e9190614603565b90815260405190819003602001902082549091506001600160a01b0316331480610a9257506001546001600160a01b031633145b610aea5760405162461bcd60e51b8152602060048201526024808201527f4572726f7220696e20696e697469617465457363726f773a20556e6175746f726044820152631a5e995960e21b606482015260840161088e565b6040805160008152602081018083528151902091610b0d9160018501910161465a565b6040516020818303038152906040528051906020012014158015610b3a575080546001600160a01b031615155b610b975760405162461bcd60e51b815260206004820152602860248201527f4572726f7220696e20696e697469617465457363726f773a696e76616c69642060448201526739b7b63aba34b7b760c11b606482015260840161088e565b42826004015411158015610bc357506000600a83015460ff166003811115610bc157610bc1613ee1565b145b80610c055750600782015460ff168015610be1575042826006015411155b8015610c0557506001600a83015460ff166003811115610c0357610c03613ee1565b145b610c705760405162461bcd60e51b815260206004820152603660248201527f4572726f7220696e20696e697469617465457363726f773a20566f74696e672f60448201527514dbdb1d9a5b99c81a185cdb9d08199a5b9a5cda195960521b606482015260840161088e565b6000600a83015460ff166003811115610c8b57610c8b613ee1565b1480610caf57506001600a83015460ff166003811115610cad57610cad613ee1565b145b610d145760405162461bcd60e51b815260206004820152603060248201527f4572726f7220696e20696e697469617465457363726f773a566f74696e672f5360448201526f37b63b329034b99033b7b4b7339037b760811b606482015260840161088e565b600a82018054600260ff199182161790915560058201805490911690558054600b830180546001600160a01b0319166001600160a01b03909216919091178155600182018054839291600c860191610d6b9061461f565b610d76929190613ac7565b50600282015481600201556003820181600301908054610d97929190613b52565b5060048281015490820155600580830154908201805460ff9092169160ff191660018381811115610dca57610dca613ee1565b021790555050825482546040517fff186c272cec181cc355fd8cdfd17c7e06535c599fd7db0bfc413c018d6bc06e9350610e18926001600160a01b03908116921690889060018701906146cc565b60405180910390a150505050565b60085460ff161515600114610e4d5760405162461bcd60e51b815260040161088e906145a2565b60026000541415610e705760405162461bcd60e51b815260040161088e906145cc565b60026000908155604051601090610e88908490614603565b908152604051908190036020019020546001600160a01b03161415610ee85733601082604051610eb89190614603565b90815260405190819003602001902080546001600160a01b03929092166001600160a01b03199092169190911790555b336001600160a01b0316601082604051610f029190614603565b908152604051908190036020019020546001600160a01b031614610f90576040805162461bcd60e51b81526020600482015260248101919091527f4572726f7220696e207374616b65566f74653a2054686520616464726573732060448201527f6c696e6b656420676974687562206964206973206e6f74207468652073616d65606482015260840161088e565b6001600160a01b0387166000908152600f60205260408082209051610fb6908b90614603565b90815260200160405180910390209050876001600160a01b0316600e88604051610fe09190614603565b908152604051908190036020019020546001600160a01b031614801561103f57506001600160a01b0388166000908152600f6020526040908190209051611028908b90614603565b908152602001604051809103902060010154600014155b801561108457506001600160a01b0388166000908152600f602052604090819020905161106d908b90614603565b9081526040519081900360200190206007015460ff165b6110f65760405162461bcd60e51b815260206004820152603f60248201527f4572726f7220696e207374616b65566f74653a20497373756520646f65736e7460448201527f206578697374206f7220686173206e6f20636f6d6d756e69747920766f746500606482015260840161088e565b600060138a6040516111089190614603565b9081526020016040518091039020876040516111249190614603565b90815260200160405180910390209050856001600160a01b031660128860405161114e9190614603565b908152604051908190036020019020546001600160a01b031614801561117d575080546001600160a01b031615155b80156111c0575060408051600081526020810180835281519020916111a79160018501910161465a565b6040516020818303038152906040528051906020012014155b801561121a5750846040516020016111d89190614603565b6040516020818303038152906040528051906020012081600101604051602001611202919061465a565b60405160208183030381529060405280519060200120145b61127a5760405162461bcd60e51b815260206004820152602b60248201527f4572726f7220696e207374616b65566f74653a20496e76616c696420736f6c7560448201526a746f6e2064657461696c7360a81b606482015260840161088e565b60016001600160a01b038a166000908152600f60205260409081902090516112a3908d90614603565b908152604051908190036020019020600a015460ff1660038111156112ca576112ca613ee1565b14801561131157506001600160a01b0389166000908152600f60205260409081902090514291906112fc908d90614603565b90815260200160405180910390206005015411155b801561135757506001600160a01b0389166000908152600f6020526040908190209051429190611342908d90614603565b90815260200160405180910390206006015410155b6113b45760405162461bcd60e51b815260206004820152602860248201527f4572726f7220696e207374616b65566f74653a20566f74696e67206861736e74604482015267081cdd185c9d195960c21b606482015260840161088e565b336001600160a01b0316600e846040516113ce9190614603565b908152604051908190036020019020546001600160a01b0316148015906114265750336001600160a01b031660128460405161140a9190614603565b908152604051908190036020019020546001600160a01b031614155b801561143c575080546001600160a01b03163314155b8015611452575081546001600160a01b03163314155b80156114aa57508260405160200161146a9190614603565b60405160208183030381529060405280519060200120886040516020016114919190614603565b6040516020818303038152906040528051906020012014155b80156115025750826040516020016114c29190614603565b60405160208183030381529060405280519060200120876040516020016114e99190614603565b6040516020818303038152906040528051906020012014155b6115685760405162461bcd60e51b815260206004820152603160248201527f4572726f7220696e207374616b65566f74653a205075626c6973686572206f7260448201527020736f6c7665722063616e7420766f746560781b606482015260840161088e565b600454841015801561157c57506005548411155b6115ee5760405162461bcd60e51b815260206004820152603760248201527f4572726f7220696e207374616b65566f74653a205374616b6520616d6f756e7460448201527f2069736e27742077697468696e207468652072616e6765000000000000000000606482015260840161088e565b60006001600160a01b03166011866040516116099190614603565b908152604080516020928190038301902033600090815292529020546001600160a01b03161461168c5760405162461bcd60e51b815260206004820152602860248201527f4572726f7220696e207374616b65566f74653a20566f74657220616c726561646044820152671e481cdd185ad95960c21b606482015260840161088e565b6001600160a01b0389166000908152600f6020526040808220905161172191906116b7908e90614603565b908152604080519182900360209081018320600801805480830285018301909352828452919083018282801561171657602002820191906000526020600020905b81546001600160a01b031681526001909101906020018083116116f8575b505050505033613619565b9050801561178f5760405162461bcd60e51b815260206004820152603560248201527f4572726f7220696e207374616b65566f74653a20566f74657220616c726561646044820152743c903b37ba32b21034b710309039b7b63aba34b7b760591b606482015260840161088e565b611798856136ad565b6117a3863387613819565b60088301805460018082018355600092835260208084209092018054336001600160a01b031991821681179092556003870180549384018155855292909320018054909116821790556040517fa07aff081dbcaa55b8e686a9095d3e293cc11e9188feb7ed2fa01c1aec44cd1f9161181f91899190899061477c565b60405180910390a150506001600055505050505050505050565b600f6020908152600092835260409283902082518084018301805192815290830193830193909320925281546001830154600284015460038501546004860154600587015460068801546007890154600a8a01548b5160c08101909c52600b8b0180546001600160a01b039081168e52600c8d01805491909b169d999c989b979a96999598949760ff94851697848616976101009095049095169594908401916118e29061461f565b80601f016020809104026020016040519081016040528092919081815260200182805461190e9061461f565b801561195b5780601f106119305761010080835404028352916020019161195b565b820191906000526020600020905b81548152906001019060200180831161193e57829003601f168201915b5050505050815260200160028201548152602001600382018054806020026020016040519081016040528092919081815260200182805480156119c757602002820191906000526020600020905b81546001600160a01b031681526001909101906020018083116119a9575b505050918352505060048201546020820152600582015460409091019060ff1660018111156119f8576119f8613ee1565b6001811115611a0957611a09613ee1565b90525090508b565b60085460009060ff161515600114611a3b5760405162461bcd60e51b815260040161088e906145a2565b60006001600160a01b0316601287604051611a569190614603565b908152604051908190036020019020546001600160a01b03161415611ab65733601287604051611a869190614603565b90815260405190819003602001902080546001600160a01b03929092166001600160a01b03199092169190911790555b336001600160a01b0316600e83604051611ad09190614603565b908152604051908190036020019020546001600160a01b031614801590611b285750826001600160a01b0316601287604051611b0c9190614603565b908152604051908190036020019020546001600160a01b031614155b8015611b80575085604051602001611b409190614603565b6040516020818303038152906040528051906020012082604051602001611b679190614603565b6040516020818303038152906040528051906020012014155b611bbe5760405162461bcd60e51b815260206004820152600f60248201526e504f53545f534f4c5554494f4e5f4160881b604482015260640161088e565b336001600160a01b0316601287604051611bd89190614603565b908152604051908190036020019020546001600160a01b031614611c305760405162461bcd60e51b815260206004820152600f60248201526e2827a9aa2fa9a7a62aaa24a7a72fa160891b604482015260640161088e565b6001600160a01b0383166000908152600f60205260408082209051611c56908790614603565b90815260200160405180910390209050806001015460001415611cad5760405162461bcd60e51b815260206004820152600f60248201526e504f53545f534f4c5554494f4e5f4360881b604482015260640161088e565b42816003015411158015611cc5575042816004015410155b8015611ce957506000600a82015460ff166003811115611ce757611ce7613ee1565b145b611d275760405162461bcd60e51b815260206004820152600f60248201526e1413d4d517d4d3d315551253d397d1608a1b604482015260640161088e565b336001600160a01b0316601386604051611d419190614603565b908152602001604051809103902088604051611d5d9190614603565b908152604051908190036020019020546001600160a01b03161415611db65760405162461bcd60e51b815260206004820152600f60248201526e504f53545f534f4c5554494f4e5f4560881b604482015260640161088e565b6000601386604051611dc89190614603565b908152602001604051809103902088604051611de49190614603565b90815260405190819003602090810190912080546001600160a01b031916331781558851909250611e1d916001840191908a0190613b91565b5042600282015560098201805460018101825560009182526020918290208951611e4f939190920191908a0190613b91565b507f12ef597f9030f90d184aedc8ea56b82fc3192e0deb86c061e4521977a0a8cb1588888689604051611e8594939291906147aa565b60405180910390a1506001979650505050505050565b6001546001600160a01b03163314611ec55760405162461bcd60e51b815260040161088e9061457e565b60085460ff161515600114611eec5760405162461bcd60e51b815260040161088e906145a2565b600255565b6001546001600160a01b03163314611f1b5760405162461bcd60e51b815260040161088e9061457e565b60085460ff161515600114611f425760405162461bcd60e51b815260040161088e906145a2565b600c80546001600160a01b0319166001600160a01b0392909216919091179055565b81516020818401810180516013825292820194820194909420919093528151808301840180519281529084019290930191909120915280546001820180546001600160a01b039092169291611fb89061461f565b80601f0160208091040260200160405190810160405280929190818152602001828054611fe49061461f565b80156120315780601f1061200657610100808354040283529160200191612031565b820191906000526020600020905b81548152906001019060200180831161201457829003601f168201915b50505050600283015460048401546005909401549293909290915060ff1685565b6001546001600160a01b0316331461207c5760405162461bcd60e51b815260040161088e9061457e565b60085460ff1615156001146120a35760405162461bcd60e51b815260040161088e906145a2565b600180546001600160a01b0319166001600160a01b0392909216919091179055565b60085460ff1615156001146120ec5760405162461bcd60e51b815260040161088e906145a2565b6001546001600160a01b031633146121165760405162461bcd60e51b815260040161088e9061457e565b600260005414156121395760405162461bcd60e51b815260040161088e906145cc565b60026000908155600a546040516345accf9360e11b81526001600160a01b0390911691908290638b599f269061217690600d903090600401614840565b602060405180830381865afa158015612193573d6000803e3d6000fd5b505050506040513d601f19601f820116820180604052508101906121b7919061486a565b604051633111e7b360e01b81529091506001600160a01b03831690633111e7b3906121eb90600d9085908890600401614883565b6020604051808303816000875af115801561220a573d6000803e3d6000fd5b505050506040513d601f19601f8201168201806040525081019061222e919061486a565b505060016000555050565b6001546001600160a01b031633146122635760405162461bcd60e51b815260040161088e9061457e565b60085460ff16156122a55760405162461bcd60e51b815260206004820152600c60248201526b20a1aa24ab22afa2a92927a960a11b604482015260640161088e565b6008805460ff191660011790556040517fb0706a2e3a3844f0fd14570d9386ca4e5a35c3a4af7e91e274a27a8233fee37e90600090a1565b60085460ff1615156001146123045760405162461bcd60e51b815260040161088e906145a2565b6001546001600160a01b0316331461232e5760405162461bcd60e51b815260040161088e9061457e565b80855114801561233e5750808451145b801561234a5750808351145b6123a45760405162461bcd60e51b815260206004820152602560248201527f4572726f7220696e20736574556e7374616b65416d6f756e743a556e6576656e6044820152642073697a6560d81b606482015260840161088e565b6001600160a01b0386166000908152600f60205260409081902090514291906123ce908a90614603565b9081526020016040518091039020600601541115801561242e57506001600160a01b0386166000908152600f6020526040908190209051612410908990614603565b908152604051908190036020019020600a015460ff61010090910416155b6124a05760405162461bcd60e51b815260206004820152603b60248201527f4572726f7220696e20736574556e7374616b65416d6f756e743a20566f74696e60448201527f67206861736e74206f766572206f7220616c7265616479207365740000000000606482015260840161088e565b815b8181101561261857600060118783815181106124c0576124c06148b6565b60200260200101516040516124d59190614603565b908152602001604051809103902060008784815181106124f7576124f76148b6565b60200260200101516001600160a01b03166001600160a01b03168152602001908152602001600020905080600201546000141580156125395750600381015415155b6125ab5760405162461bcd60e51b815260206004820152603a60248201527f4572726f7220696e20736574556e7374616b65416d6f756e743a756e7374616b60448201527f65206973207a65726f206f7220696e76616c696420656e747279000000000000606482015260840161088e565b8482815181106125bd576125bd6148b6565b6020908102919091010151600382018190556002820154111561260557806003015481600201546125ee91906148e2565b600b60008282546125ff91906148f9565b90915550505b508061261081614911565b9150506124a2565b506001600160a01b0386166000908152600f602052604090819020905160019190612644908a90614603565b908152604051908190036020018120600a0180549215156101000261ff0019909316929092179091557f214bf9944e6d163ea92859289c103d965c53ad8945bf3b434666337da9e0fb509061269c9088908a9061492c565b60405180910390a150505050505050565b600c5460085460405163095ea7b360e01b81526001600160a01b03610100909204821660048201526024810184905291169063095ea7b3906044016020604051808303816000875af1158015612707573d6000803e3d6000fd5b505050506040513d601f19601f8201168201806040525081019061272b9190614950565b5050565b6001546001600160a01b031633146127595760405162461bcd60e51b815260040161088e9061457e565b60085460ff1615156001146127805760405162461bcd60e51b815260040161088e906145a2565b60088054610100600160a81b0319166101006001600160a01b038416908102919091179091556040519081527f0bb01834b1314691f953dcfb15a61ba11a9c52ba89626f048d27fc16580a3e5f906020015b60405180910390a150565b60085460009060ff1615156001146128075760405162461bcd60e51b815260040161088e906145a2565b6002600054141561282a5760405162461bcd60e51b815260040161088e906145cc565b60026000908155604051600e90612842908b90614603565b908152604051908190036020019020546001600160a01b031614156128a25733600e896040516128729190614603565b90815260405190819003602001902080546001600160a01b03929092166001600160a01b03199092169190911790555b336001600160a01b0316600e896040516128bc9190614603565b908152604051908190036020019020546001600160a01b0316146129115760405162461bcd60e51b815260206004820152600c60248201526b504f53545f49535355455f4160a01b604482015260640161088e565b600254861015801561292557506003548611155b6129605760405162461bcd60e51b815260206004820152600c60248201526b2827a9aa2fa4a9a9aaa2afa160a11b604482015260640161088e565b61296a85876148f9565b3331116129a85760405162461bcd60e51b815260206004820152600c60248201526b504f53545f49535355455f4360a01b604482015260640161088e565b6129b285876148f9565b3410156129f05760405162461bcd60e51b815260206004820152600c60248201526b1413d4d517d254d4d55157d160a21b604482015260640161088e565b7f1af6272a5d08281e43732c329dd30e6d0501902db02d7b38f64cd79d50986a433389898989604051612a27959493929190614972565b60405180910390a160006006548610158015612a4557506007548611155b15612a4e575060015b612a5e33898989898989886138c3565b60019150506001600055979650505050505050565b6001546001600160a01b03163314612a9d5760405162461bcd60e51b815260040161088e9061457e565b60085460ff161515600114612ac45760405162461bcd60e51b815260040161088e906145a2565b6008805460ff191690556040517f9058876cfd4b7cb3f1429ad24d94b5b883fcd53187eb1df9a6f3ae79d0464ee390600090a1565b6001546001600160a01b03163314612b235760405162461bcd60e51b815260040161088e9061457e565b60085460ff161515600114612b4a5760405162461bcd60e51b815260040161088e906145a2565b600980546001600160a01b0319166001600160a01b0383169081179091556040519081527fc3de76bed96deb5f9fcb13c40dc89723fe0cd5efac979592fd08ed99c748b589906020016127d2565b600d8181548110612ba857600080fd5b6000918252602090912001546001600160a01b0316905081565b60085460ff161515600114612be95760405162461bcd60e51b815260040161088e906145a2565b60026000541415612c0c5760405162461bcd60e51b815260040161088e906145cc565b600260009081556001600160a01b0383168152600f60205260408082209051612c36908490614603565b9081526040805191829003602090810183206101a08401835280546001600160a01b031684526001810154848301526002810154848401526003810154606085015260048101546080850152600581015460a0850152600681015460c0850152600781015460ff16151560e08501526008810180548451818502810185019095528085529193610100860193909290830182828015612cfe57602002820191906000526020600020905b81546001600160a01b03168152600190910190602001808311612ce0575b5050505050815260200160098201805480602002602001604051908101604052809291908181526020016000905b82821015612dd8578382906000526020600020018054612d4b9061461f565b80601f0160208091040260200160405190810160405280929190818152602001828054612d779061461f565b8015612dc45780601f10612d9957610100808354040283529160200191612dc4565b820191906000526020600020905b815481529060010190602001808311612da757829003601f168201915b505050505081526020019060010190612d2c565b50505090825250600a82015460209091019060ff166003811115612dfe57612dfe613ee1565b6003811115612e0f57612e0f613ee1565b8152600a820154610100900460ff1615156020808301919091526040805160c081018252600b850180546001600160a01b03168252600c860180549390950194919390929084019190612e619061461f565b80601f0160208091040260200160405190810160405280929190818152602001828054612e8d9061461f565b8015612eda5780601f10612eaf57610100808354040283529160200191612eda565b820191906000526020600020905b815481529060010190602001808311612ebd57829003601f168201915b505050505081526020016002820154815260200160038201805480602002602001604051908101604052809291908181526020018280548015612f4657602002820191906000526020600020905b81546001600160a01b03168152600190910190602001808311612f28575b505050918352505060048201546020820152600582015460409091019060ff166001811115612f7757612f77613ee1565b6001811115612f8857612f88613ee1565b905250905250610180810151519091506001600160a01b0316331480612fb857506001546001600160a01b031633145b6130155760405162461bcd60e51b815260206004820152602860248201527f4572726f7220696e207472616e736665724f776e6572736869703a20556e61756044820152671d1a1bdc9a5e995960c21b606482015260840161088e565b6002816101400151600381111561302e5761302e613ee1565b1480156130555750600081610180015160a00151600181111561305357613053613ee1565b145b6130b85760405162461bcd60e51b815260206004820152602e60248201527f4572726f7220696e207472616e736665724f776e6572736869703a204e6f742060448201526d617420726967687420737461746560901b606482015260840161088e565b61018081018051600160a090910152515160208201516130d891906139cf565b805161018082015180516020909101516040517f4f7ede0133b6799935c8573d667ee357826ee17fedc63fb69dc2a38beca876a59361311d93909290918791906149bd565b60405180910390a15050600160005550565b6001546001600160a01b031633146131595760405162461bcd60e51b815260040161088e9061457e565b60085460ff1615156001146131805760405162461bcd60e51b815260040161088e906145a2565b600a80546001600160a01b0319166001600160a01b0392909216919091179055565b60085460ff1615156001146131c95760405162461bcd60e51b815260040161088e906145a2565b600260005414156131ec5760405162461bcd60e51b815260040161088e906145cc565b60026000908155604051601190613204908490614603565b90815260408051602092819003830190203360008181529190935220600381015490925061323191613490565b60048101805460ff191660011790556040517f01b062543c001c7704a704fa98ab097c56fbba9f76c2d3a85242161d6ce1624a906132709084906149fb565b60405180910390a150506001600055565b6001546001600160a01b031633146132ab5760405162461bcd60e51b815260040161088e9061457e565b60085460ff1615156001146132d25760405162461bcd60e51b815260040161088e906145a2565b600d80546001810182556000919091527fd7b6990105719101dabeb77144f2a3385c8033acd3af97e9423a695e81ad1eb50180546001600160a01b0319166001600160a01b0392909216919091179055565b60085460ff16151560011461334b5760405162461bcd60e51b815260040161088e906145a2565b6001600160a01b0381166000908152600f60205260408082209051613371908690614603565b908152604051908190036020019020600781015490915060ff16801561339b575042816005015411155b80156133ab575042816006015410155b6133e65760405162461bcd60e51b815260206004820152600c60248201526b53544152545f564f54455f4160a01b604482015260640161088e565b6001546001600160a01b03163314806134425750336001600160a01b0316600e846040516134149190614603565b908152604051908190036020019020546001600160a01b03161480156134425750336001600160a01b038316145b61347d5760405162461bcd60e51b815260206004820152600c60248201526b29aa20a92a2fab27aa22afa160a11b604482015260640161088e565b600a01805460ff19166001179055505050565b60085460ff1615156001146134b75760405162461bcd60e51b815260040161088e906145a2565b600260005414156134da5760405162461bcd60e51b815260040161088e906145cc565b600260005560085460095460408051630261bf8b60e01b815290516101009093046001600160a01b039081169392169183916380500d20918491630261bf8b9160048083019260209291908290030181865afa15801561353e573d6000803e3d6000fd5b505050506040513d601f19601f820116820180604052508101906135629190614a0e565b6040516001600160e01b031960e084901b1681526001600160a01b039182166004820152602481018890529086166044820152606401600060405180830381600087803b1580156135b257600080fd5b505af11580156135c6573d6000803e3d6000fd5b50506001600055505050505050565b60405181151560248201526136169060440160408051601f198184030181529190526020810180516001600160e01b03166332458eed60e01b179052613a5e565b50565b60085460009060ff1615156001146136435760405162461bcd60e51b815260040161088e906145a2565b825160005b818110156136a057848181518110613662576136626148b6565b60200260200101516001600160a01b0316846001600160a01b0316141561368e576001925050506136a7565b8061369881614911565b915050613648565b5060009150505b92915050565b600260005414156136d05760405162461bcd60e51b815260040161088e906145cc565b600260005560085460095460408051630261bf8b60e01b815290516101009093046001600160a01b039081169392169161375a918391630261bf8b916004808201926020929091908290030181865afa158015613731573d6000803e3d6000fd5b505050506040513d601f19601f820116820180604052508101906137559190614a0e565b613a7f565b816001600160a01b031663474cf53d84836001600160a01b0316630261bf8b6040518163ffffffff1660e01b8152600401602060405180830381865afa1580156137a8573d6000803e3d6000fd5b505050506040513d601f19601f820116820180604052508101906137cc9190614a0e565b6040516001600160e01b031960e085901b1681526001600160a01b039091166004820152306024820152600060448201526064016000604051808303818588803b1580156135b257600080fd5b60085460ff1615156001146138405760405162461bcd60e51b815260040161088e906145a2565b600260005414156138635760405162461bcd60e51b815260040161088e906145cc565b6002600090815560405160119061387b908690614603565b90815260408051602092819003830190206001600160a01b0395909516600081815295909252842080546001600160a01b031916909117815560020191909155506001905550565b60085460ff1615156001146138ea5760405162461bcd60e51b815260040161088e906145a2565b6002600054141561390d5760405162461bcd60e51b815260040161088e906145cc565b60026000908155338152600f6020526040808220905161392e908a90614603565b90815260405190819003602001812080546001600160a01b038c166001600160a01b0319909116178155600181018990556002810188905542600382015560048101879055600581018690556006810185905560078101805485151560ff19909116179055915030903480156108fc02916000818181858888f193505050501580156139be573d6000803e3d6000fd5b505060016000555050505050505050565b60085460ff1615156001146139f65760405162461bcd60e51b815260040161088e906145a2565b60026000541415613a195760405162461bcd60e51b815260040161088e906145cc565b600260009081556040516001600160a01b0384169183156108fc02918491818181858888f19350505050158015613a54573d6000803e3d6000fd5b5050600160005550565b80516a636f6e736f6c652e6c6f67602083016000808483855afa5050505050565b6040516001600160a01b03821660248201526136169060440160408051601f198184030181529190526020810180516001600160e01b031663161765e160e11b179052613a5e565b828054613ad39061461f565b90600052602060002090601f016020900481019282613af55760008555613b42565b82601f10613b065780548555613b42565b82800160010185558215613b4257600052602060002091601f016020900482015b82811115613b42578254825591600101919060010190613b27565b50613b4e929150613c05565b5090565b828054828255906000526020600020908101928215613b4257600052602060002091820182811115613b42578254825591600101919060010190613b27565b828054613b9d9061461f565b90600052602060002090601f016020900481019282613bbf5760008555613b42565b82601f10613bd857805160ff1916838001178555613b42565b82800160010185558215613b42579182015b82811115613b42578251825591602001919060010190613bea565b5b80821115613b4e5760008155600101613c06565b600060208284031215613c2c57600080fd5b5035919050565b6001600160a01b038116811461361657600080fd5b8035613c5381613c33565b919050565b60008060408385031215613c6b57600080fd5b823591506020830135613c7d81613c33565b809150509250929050565b634e487b7160e01b600052604160045260246000fd5b604051601f8201601f191681016001600160401b0381118282101715613cc657613cc6613c88565b604052919050565b600082601f830112613cdf57600080fd5b81356001600160401b03811115613cf857613cf8613c88565b613d0b601f8201601f1916602001613c9e565b818152846020838601011115613d2057600080fd5b816020850160208301376000918101602001919091529392505050565b60008060408385031215613d5057600080fd5b82356001600160401b0380821115613d6757600080fd5b613d7386838701613cce565b93506020850135915080821115613d8957600080fd5b50613d9685828601613cce565b9150509250929050565b600080600080600080600080610100898b031215613dbd57600080fd5b88356001600160401b0380821115613dd457600080fd5b613de08c838d01613cce565b9950613dee60208c01613c48565b985060408b0135915080821115613e0457600080fd5b613e108c838d01613cce565b975060608b0135915080821115613e2657600080fd5b613e328c838d01613cce565b9650613e4060808c01613c48565b955060a08b0135915080821115613e5657600080fd5b613e628c838d01613cce565b945060c08b0135935060e08b0135915080821115613e7f57600080fd5b50613e8c8b828c01613cce565b9150509295985092959890939650565b60008060408385031215613eaf57600080fd5b8235613eba81613c33565b915060208301356001600160401b03811115613ed557600080fd5b613d9685828601613cce565b634e487b7160e01b600052602160045260246000fd5b60005b83811015613f12578181015183820152602001613efa565b83811115613f21576000848401525b50505050565b60008151808452613f3f816020860160208601613ef7565b601f01601f19169290920160200192915050565b60028110613f6357613f63613ee1565b9052565b600060018060a01b0380835116845260208084015160c082870152613f8f60c0870182613f27565b6040868101519088015260608087015188830391890191909152805180835290840192506000918401905b80831015613fdc57835186168252928401926001929092019190840190613fba565b506080870151608089015260a08701519450613ffb60a0890186613f53565b979650505050505050565b600061016060018060a01b038e1683528c60208401528b60408401528a60608401528960808401528860a08401528760c084015286151560e08401526004861061405257614052613ee1565b856101008401528415156101208401528061014084015261407581840185613f67565b9e9d5050505050505050505050505050565b600080600080600060a0868803121561409f57600080fd5b85356001600160401b03808211156140b657600080fd5b6140c289838a01613cce565b965060208801359150808211156140d857600080fd5b6140e489838a01613cce565b955060408801359150808211156140fa57600080fd5b61410689838a01613cce565b94506060880135915061411882613c33565b9092506080870135908082111561412e57600080fd5b5061413b88828901613cce565b9150509295509295909350565b60006020828403121561415a57600080fd5b813561416581613c33565b9392505050565b6001600160a01b038616815260a06020820181905260009061419090830187613f27565b90508460408301528360608301526141ab6080830184613f53565b9695505050505050565b6000602082840312156141c757600080fd5b81356001600160401b038111156141dd57600080fd5b6141e984828501613cce565b949350505050565b60006001600160401b0382111561420a5761420a613c88565b5060051b60200190565b600082601f83011261422557600080fd5b8135602061423a614235836141f1565b613c9e565b82815260059290921b8401810191818101908684111561425957600080fd5b8286015b848110156142985780356001600160401b0381111561427c5760008081fd5b61428a8986838b0101613cce565b84525091830191830161425d565b509695505050505050565b600082601f8301126142b457600080fd5b813560206142c4614235836141f1565b82815260059290921b840181019181810190868411156142e357600080fd5b8286015b848110156142985780356142fa81613c33565b83529183019183016142e7565b600082601f83011261431857600080fd5b81356020614328614235836141f1565b82815260059290921b8401810191818101908684111561434757600080fd5b8286015b84811015614298578035835291830191830161434b565b600080600080600080600060e0888a03121561437d57600080fd5b87356001600160401b038082111561439457600080fd5b6143a08b838c01613cce565b98506143ae60208b01613c48565b975060408a01359150808211156143c457600080fd5b6143d08b838c01614214565b965060608a01359150808211156143e657600080fd5b6143f28b838c016142a3565b955060808a013591508082111561440857600080fd5b506144158a828b01614307565b93505060a0880135915060c0880135905092959891949750929550565b600080600080600080600060e0888a03121561444d57600080fd5b87356001600160401b038082111561446457600080fd5b6144708b838c01613cce565b985060208a013591508082111561448657600080fd5b506144938a828b01613cce565b979a9799505050506040860135956060810135956080820135955060a0820135945060c09091013592509050565b600080604083850312156144d457600080fd5b82356001600160401b038111156144ea57600080fd5b6144f685828601613cce565b9250506020830135613c7d81613c33565b60008060006060848603121561451c57600080fd5b83356001600160401b038082111561453357600080fd5b61453f87838801613cce565b9450602086013591508082111561455557600080fd5b5061456286828701613cce565b925050604084013561457381613c33565b809150509250925092565b6020808252600a908201526927a7262cafa0a226a4a760b11b604082015260600190565b60208082526010908201526f2222a0a1aa24ab20aa22afa2a92927a960811b604082015260600190565b6020808252601f908201527f5265656e7472616e637947756172643a207265656e7472616e742063616c6c00604082015260600190565b60008251614615818460208701613ef7565b9190910192915050565b600181811c9082168061463357607f821691505b6020821081141561465457634e487b7160e01b600052602260045260246000fd5b50919050565b60008083546146688161461f565b600182811680156146805760018114614691576146c0565b60ff198416875282870194506146c0565b8760005260208060002060005b858110156146b75781548a82015290840190820161469e565b50505082870194505b50929695505050505050565b600060018060a01b038087168352602081871681850152608060408501526146f76080850187613f27565b915083820360608501526000855461470e8161461f565b80855260018281168015614729576001811461473d5761476b565b60ff1984168787015260408701945061476b565b896000528560002060005b84811015614763578154898201890152908301908701614748565b880187019550505b50929b9a5050505050505050505050565b60608152600061478f6060830186613f27565b6001600160a01b039490941660208301525060400152919050565b6080815260006147bd6080830187613f27565b82810360208401526147cf8187613f27565b905082810360408401526147e38186613f27565b90508281036060840152613ffb8185613f27565b6000815480845260208085019450836000528060002060005b838110156148355781546001600160a01b031687529582019560019182019101614810565b509495945050505050565b60408152600061485360408301856147f7565b905060018060a01b03831660208301529392505050565b60006020828403121561487c57600080fd5b5051919050565b60608152600061489660608301866147f7565b6020830194909452506001600160a01b0391909116604090910152919050565b634e487b7160e01b600052603260045260246000fd5b634e487b7160e01b600052601160045260246000fd5b6000828210156148f4576148f46148cc565b500390565b6000821982111561490c5761490c6148cc565b500190565b6000600019821415614925576149256148cc565b5060010190565b6001600160a01b03831681526040602082018190526000906141e990830184613f27565b60006020828403121561496257600080fd5b8151801515811461416557600080fd5b6001600160a01b038616815260a06020820181905260009061499690830187613f27565b82810360408401526149a88187613f27565b60608401959095525050608001529392505050565b6001600160a01b038581168252841660208201526080604082018190526000906149e990830185613f27565b8281036060840152613ffb8185613f27565b6020815260006141656020830184613f27565b600060208284031215614a2057600080fd5b815161416581613c3356fea26469706673582212209e5453a43810acdb31cdd1a2a581ee6d8bd5dc9e6a371aeb0b6d21a025d202c564736f6c634300080a0033",
    "sourcePath": "/Users/ashispradhan/Desktop/Projects/ChainWhiZ/Chainwhiz-Contract-v2/contracts/ChainwhizCore.sol",
    "compiler": {
        "name": "solc",
        "version": "0.8.10+commit.fc410830"
    },
    "functionHashes": {
        "ChainwhizAdmin()": "1a38517d",
        "ChainwhizTreasary()": "44fc10c6",
        "MAX_COMMUNITY_REWARD_AMOUNT()": "85dd2920",
        "MAX_REWARD_AMOUNT()": "a04f6b4b",
        "MAX_STAKE_AMOUNT()": "2f92f1f2",
        "MIN_COMMUNITY_REWARD_AMOUNT()": "504e7604",
        "MIN_REWARD_AMOUNT()": "f6ef85cd",
        "MIN_STAKING_AMOUNT()": "ac601474",
        "aMaticAddress()": "a2ca7194",
        "aaveIncentiveAddress()": "aefe1169",
        "activateContract()": "8fda356d",
        "claimInterest(address)": "88d742c2",
        "deactivateContract()": "bca353be",
        "ethGateWayAddress()": "2900b5ce",
        "initiateEscrow(string,string)": "2b54ecd1",
        "isContractActive()": "8f5949f9",
        "issueDetail(address,string)": "3515f969",
        "lendingPoolProviderAddress()": "6d1b6d46",
        "postIssue(string,string,uint256,uint256,uint256,uint256,uint256)": "aab28d29",
        "postSolution(string,string,string,address,string)": "406fac88",
        "publisher(string)": "ff9bebc6",
        "rewardAddress(uint256)": "bfcc2a5f",
        "setAaveIncentiveAddress(address)": "cc89b1d6",
        "setApproval(uint256)": "97541c32",
        "setChainwhizAdmin(address)": "7206bc20",
        "setETHGatewayAddress(address)": "9ae9923b",
        "setLendingPoolProviderAddress(address)": "bceefff4",
        "setMinimumRewardAmount(uint256)": "457956c9",
        "setMinimumStakeAmount(uint256)": "0d29fcd4",
        "setReawrdArrayAddress(address)": "ef0763a8",
        "setUnstakeAmount(string,address,string[],address[],uint256[],uint256,uint256)": "933bdf41",
        "setaMaticAddress(address)": "6247be52",
        "solutionDetails(string,string)": "65596e41",
        "solver(string)": "fbbd12a6",
        "stakeVote(string,address,string,string,address,string,uint256,string)": "2df715ce",
        "startVotingStage(string,string,address)": "fbdb73aa",
        "transferRewardAmount(address,string)": "c4736062",
        "unstake(string)": "d8a0ac97",
        "voteDetails(string,address)": "f5724fe1",
        "voter(string)": "8671bd6c",
        "withdrawFromTrasery(uint256,address)": "0dbb78a4"
    },
    "gasEstimates": {
        "creation": {
            "codeDepositCost": "3808200",
            "executionCost": "infinite",
            "totalCost": "infinite"
        },
        "external": {
            "": "269",
            "ChainwhizAdmin()": "2417",
            "ChainwhizTreasary()": "2429",
            "MAX_COMMUNITY_REWARD_AMOUNT()": "2362",
            "MAX_REWARD_AMOUNT()": "2429",
            "MAX_STAKE_AMOUNT()": "2363",
            "MIN_COMMUNITY_REWARD_AMOUNT()": "2363",
            "MIN_REWARD_AMOUNT()": "2383",
            "MIN_STAKING_AMOUNT()": "2384",
            "aMaticAddress()": "2371",
            "aaveIncentiveAddress()": "2437",
            "activateContract()": "29448",
            "claimInterest(address)": "infinite",
            "deactivateContract()": "29538",
            "ethGateWayAddress()": "2450",
            "initiateEscrow(string,string)": "infinite",
            "isContractActive()": "2443",
            "issueDetail(address,string)": "infinite",
            "lendingPoolProviderAddress()": "2460",
            "postIssue(string,string,uint256,uint256,uint256,uint256,uint256)": "infinite",
            "postSolution(string,string,string,address,string)": "infinite",
            "publisher(string)": "infinite",
            "rewardAddress(uint256)": "4670",
            "setAaveIncentiveAddress(address)": "28951",
            "setApproval(uint256)": "infinite",
            "setChainwhizAdmin(address)": "28885",
            "setETHGatewayAddress(address)": "30023",
            "setLendingPoolProviderAddress(address)": "29950",
            "setMinimumRewardAmount(uint256)": "26645",
            "setMinimumStakeAmount(uint256)": "26646",
            "setReawrdArrayAddress(address)": "53120",
            "setUnstakeAmount(string,address,string[],address[],uint256[],uint256,uint256)": "infinite",
            "setaMaticAddress(address)": "28930",
            "solutionDetails(string,string)": "infinite",
            "solver(string)": "infinite",
            "stakeVote(string,address,string,string,address,string,uint256,string)": "infinite",
            "startVotingStage(string,string,address)": "infinite",
            "transferRewardAmount(address,string)": "infinite",
            "unstake(string)": "infinite",
            "voteDetails(string,address)": "infinite",
            "voter(string)": "infinite",
            "withdrawFromTrasery(uint256,address)": "35474"
        },
        "internal": {
            "_checkAlreadyVoted(address[] memory,address)": "infinite",
            "_lendToAave(uint256)": "infinite",
            "_postIssue(address,string memory,uint256,uint256,uint256,uint256,uint256,bool)": "infinite",
            "_storeVoteDetail(string memory,address,uint256)": "infinite",
            "_transferFunds(address payable,uint256)": "infinite",
            "_withdrawFromAave(uint256,address)": "infinite"
        }
    }
}